:020000040800F2
:10000000702E0020DD010008C9090008D90600088B
:10001000C5090008B9050008CF0E0008000000005F
:10002000000000000000000000000000350B000888
:10003000BD050008000000003D0A0008490C00084A
:10004000F7010008F7010008F7010008F7010008B0
:10005000F7010008F7010008F7010008F7010008A0
:10006000F7010008F7010008F7010008F701000890
:10007000F7010008F7010008F7010008F701000880
:10008000F7010008F7010008F7010008F701000870
:10009000F7010008F7010008F7010008F701000860
:1000A000F7010008F7010008F7010008F701000850
:1000B000F7010008F7010008F7010008F701000840
:1000C000F7010008F7010008F7010008F701000830
:1000D000F7010008AD0C0008F7010008F70100085F
:1000E000F7010008F7010008F7010008F701000810
:1000F000F7010008F7010008F7010008F701000800
:10010000F7010008F7010008F7010008F7010008EF
:10011000F7010008F7010008F7010008F7010008DF
:10012000F7010008F7010008F7010008F7010008CF
:1001300000F002F800F042F80AA090E8000C8244B7
:100140008344AAF10107DA4501D100F037F8AFF294
:10015000090EBAE80F0013F0010F18BFFB1A43F0A5
:1001600001031847141F0000341F0000103A24BF79
:1001700078C878C1FAD8520724BF30C830C144BF0C
:1001800004680C607047000000230024002500264E
:10019000103A28BF78C1FBD8520728BF30C148BFEA
:1001A0000B607047692900F08380642900F080802B
:1001B000002070471FB51FBD10B510BD00F0CCF971
:1001C0001146FFF7F7FF00F0E5FE00F0EAF903B48F
:1001D000FFF7F2FF03BC00F083FE000009488047F0
:1001E00009480047FEE7FEE7FEE7FEE7FEE7FEE719
:1001F000FEE7FEE7FEE7FEE704480549054A064B31
:10020000704700004D0C00083101000870280020E4
:10021000702E0020702A0020702A002070470000F5
:100220000FB4044910B503AA029800F07FF910BC7E
:100230005DF814FB400000200FB41CB5074B06AA64
:100240007B4469460090059800F057F90020694604
:1002500000F066F91CBC5DF814FB0000DD02000034
:1002600070B5044685690068C10601D5302600E0F6
:100270002026C00707D070BDD4E901213046904741
:10028000206A401C20626D1EF6D570BD70B5044614
:1002900085690078C00707D170BDD4E9012120200D
:1002A0009047206A401C20626D1EF6D570BD00008C
:1002B0002DE9F0410646002410687529314616A53F
:1002C00010D0AFF30080002802DA404213A507E007
:1002D00031688A0701D512A502E0490704D511A5A6
:1002E000012401E0AFF3008000210A2206F1240777
:1002F00009E0B0FBF2FCB0FBF2F302FB1C00303073
:1003000078541846491C0028F3D123462A46304623
:10031000BDE8F04100F093B8000000002D0000009F
:100320002B000000200000002DE9F0474FF0000AEC
:1003300089460446C0F820A02046E1688847002886
:1003400076D0252806D0D4E901219047206A401CA8
:100350002062F1E7E168204600258847C4F81CA028
:1003600006460027C4F818A02A2E09D0304600F00F
:10037000B0FD38B304EB8708303EC8F8186019E0C8
:1003800059F8041B204604EB87029161E168884715
:10039000012F064618D1E069002820DA25F0200553
:1003A0001DE0D8F8180000EB800006EB4000303864
:1003B000C8F818002046E1688847064600F089FD25
:1003C0000028EED1012F0AD02E2E08D12046E16858
:1003D00088477F1C0646022F45F02005C4DBA06934
:1003E000002803DA404245F00105A061E80701D08A
:1003F00025F01005B6B1A6F14100192802D8203623
:1004000045F400654A463146204625604D46FFF7D3
:10041000C9FE58B1012806D0ED1D25F0070000F1F6
:10042000080989E704E005F1040985E730468AE711
:10043000206ABDE8F08770477047704770472DE924
:10044000F0470D4699469246044600F1240801689B
:10045000880604D5E06921F01001216000E0012048
:10046000A84201DD471B00E00027A1697A1902EBD1
:100470000900081AA0612078C00602D42046FFF7C0
:10048000EFFE002608E0D4E901211AF806009047A3
:10049000206A401C761C20624E45F4DB2078C006A2
:1004A0000AD52046FFF7DCFE06E0D4E90121302022
:1004B0009047206A401C2062381EA7F10107F4DC37
:1004C00007E0D4E9012118F805009047206A401C94
:1004D0002062281EA5F10105F3DC2046FFF7D6FEB9
:1004E0002078000602D50220BDE8F0870120FBE756
:1004F00001694A1C02610878704700B58FB0CDE9E8
:1005000001310021059105497944CDE903101146D7
:100510006846FFF709FF0FB000BD0000E5FFFFFFD1
:100520000A6802F8010B0A6070470000074B70B5BB
:100530000D467B44FFF7E1FF0446284600F008F82B
:1005400010B14FF0FF3070BD204670BD430A00006F
:10055000007B00F080007047754600F029F8AE4639
:1005600005006946534620F00700854618B020B5BF
:10057000FFF742FEBDE820404FF000064FF00007B5
:100580004FF000084FF0000B21F00701AC46ACE83B
:10059000C009ACE8C009ACE8C009ACE8C0098D46A8
:1005A00070470446AFF300802046FFF710FE0000BE
:1005B000004870471028002000BFFEE770472DE973
:1005C000F0410246002500260020002300240027D9
:1005D00091F803C00CF00F0591F803C00CF0100C5B
:1005E000BCF1000F03D091F802C04CEA050591F868
:1005F00000C0BCF1000F31D0146800202BE04FF098
:10060000010C0CFA00F3B1F800C00CEA03069E429C
:1006100020D183004FF00F0C0CFA03F7BC4305FA0E
:1006200003FC4CEA040491F803C0BCF1280F06D186
:100630004FF0010C0CFA00FCC2F814C00AE091F86B
:1006400003C0BCF1480F05D14FF0010C0CFA00FCBF
:10065000C2F810C0401C0828D1D31460B1F800C003
:10066000BCF1FF0F34DD546800202EE000F1080CCF
:100670004FF0010808FA0CF3B1F800C00CEA0306C9
:100680009E4221D183004FF00F0C0CFA03F7BC43BC
:1006900005FA03FC4CEA040491F803C0BCF1280FEE
:1006A00005D100F1080C08FA0CF8C2F8148091F892
:1006B00003C0BCF1480F07D100F1080C4FF001084E
:1006C00008FA0CF8C2F81080401C0828CED35460F9
:1006D000BDE8F0810161704700BFFEE710B5002062
:1006E0000F4908600F48006820F00F000D490860AE
:1006F0000846006840F00700086000200A49C1F879
:10070000A001022000F012FC01200549086002202F
:1007100000F00CFC00200449C1F89C0110BD000051
:100720009C812142040C01400080214208B5012136
:10073000082000F085F94FF4C070ADF800001020DB
:100740008DF8030003208DF8020069460448FFF786
:1007500036FF0120034908600349C1F8A00108BD24
:10076000000C01409C8121420080214210B50020F4
:100770000F4908600F48006820F00F000D4908601D
:100780000846006840F00700086001200A49C1F8E7
:10079000A001022000F0CAFB0120054908600220E8
:1007A00000F0C4FB00200449C1F89C0110BD00000A
:1007B0009C812142040C01400080214270B5054615
:1007C00000241748006820F00F001549086008460B
:1007D000006840F004000860002616E0002011497F
:1007E0000860022000F0A2FB01200F49C1F89C0123
:1007F0006006040E0B487C38006808B1601CC4B267
:10080000012000F093FB701CC6B2082EE6DB15B980
:10081000FFF7ACFF01E0FFF761FF204670BD00006D
:10082000040C01409C8121420080214270B50446A5
:100830001548006820F00F0013490860084600685A
:1008400040F007000860002010490860002517E00C
:10085000E0090E49091D08606006040E022000F040
:1008600065FB01200A49C1F89C01022000F05EFBF3
:10087000002006490860022000F058FB681CC5B241
:10088000082DE5DB70BD0000040C01409C81214275
:100890000080214210B50F48006820F00F000D497C
:1008A00008600846006840F00700086001200A4917
:1008B00008600A49C1F89C01042000F037FB0020C1
:1008C00005490860042000F031FB00200349C1F80D
:1008D0009C0110BD040C0140A081214200802142F6
:1008E00010B50F48006820F00F000D490860084659
:1008F000006840F00700086000200A4908600A49C3
:10090000C1F8A001042000F011FB01200549086096
:100910000549C1F8A001042000F008FB10BD00004B
:10092000040C01409C8121420080214210B500242A
:100930001448006820F00F0012490860084600685B
:1009400040F00400086001200F49086000F0EEFA52
:1009500001200E49C1F89C0100F0E8FA07E0601C94
:10096000C4B2FA2C03DDFFF7BBFF012010BD06481F
:10097000803800680028F2D10349091F086000BFD1
:10098000F4E70000040C0140A081214200802142D4
:1009900008B50121042000F053F80220ADF8000052
:1009A00010208DF8030003208DF8020069460448EA
:1009B000FFF705FE02210248FFF78CFE08BD00008C
:1009C0000008014000BFFEE77047000070B500213D
:1009D00000230F22C47804B3154C246804F4E064A7
:1009E000C4F5E064210AC1F10403CA40447804FA62
:1009F00003F184781440214309010E4C0678A15577
:100A0000047804F01F050124AC4005786D11AD0099
:100A100005F1E025C5F8004109E0047804F01F0560
:100A20000124AC40044D0678761145F8264070BD8F
:100A30000CED00E000E400E080E100E07047000021
:100A400029B1064A92690243044B9A6104E0034AC1
:100A500092698243014B9A61704700000010024086
:100A600030B500210022002400232D4D6D6805F0D3
:100A70000C0121B1042905D0082923D105E0294D15
:100A8000056022E0274D05601FE0254D6D6805F4E7
:100A90007012234D6D6805F48034022505EB9242F7
:100AA0001CB9214D554305600BE01D4D6D6805F4E3
:100AB00000351DB11C4D5543056002E0194D5543ED
:100AC000056002E0174D056000BF00BF144D6D6862
:100AD00005F0F0010909154D6B5C0568DD404560C6
:100AE0000F4D6D6805F4E061090A104D6B5C4568B7
:100AF000DD4085600A4D6D6805F46051C90A0B4DF3
:100B00006B5C4568DD40C560054D6D6805F440418E
:100B1000890B074D6B5CC568B5FBF3F5056130BD0E
:100B20000010024000127A0000093D00260000205B
:100B300036000020704710B500F002F810BD00002C
:100B40000CB50020019000903348006840F48030DC
:100B50003149086000BF3048006800F40030009060
:100B60000198401C0190009818B90198B0F5A06F49
:100B7000F1D12948006800F4003010B10120009044
:100B800001E0002000900098012843D1234800682C
:100B900040F01000214908600846006820F003007A
:100BA00008600846006840F0020008601A48406883
:100BB000194948600846406848600846406840F463
:100BC000806048600846406820F47C104860084611
:100BD000406840F4E81048600846006840F08070C3
:100BE000086000BF0C48006800F000700028F9D0D1
:100BF0000948406820F003000749486008464068FB
:100C000040F00200486000BF0348406800F00C005C
:100C10000828F9D10CBD000000100240002002405D
:100C2000042808D14FF0E021096941F004014FF098
:100C3000E022116107E04FF0E021096921F0040191
:100C40004FF0E022116170477047000010B5134863
:100C5000006840F0010011490860084640681049EA
:100C600008400E494860084600680E4908400B4994
:100C700008600846006820F4802008600846406844
:100C800020F4FE0048604FF41F008860FFF753FF18
:100C90004FF000600449086010BD000000100240E1
:100CA0000000FFF8FFFFF6FE08ED00E010B540F28F
:100CB00025511D4800F04AF810B31B4800F002F916
:100CC000C4B21A48008800F40040C8B91748008828
:100CD00000F4804060B10A2C03D000201349088042
:100CE00020E01248008840F400401049088019E0D4
:100CF0000D2C06D10D48008840F480400B49088037
:100D000010E00A480088C0F30D0009490C54074858
:100D10000088401C0549088008460088C72801DD76
:100D20000020088010BD0000003801404400002071
:100D3000E80F002021B1828942F40052828104E050
:100D400082894DF6FF731A408281704770B5024662
:100D5000002400230025002040F66A16B14200D18D
:100D600000BFC1F3421501F01F03012606FA03F389
:100D7000012D02D19689334006E0022D02D1168A58
:100D8000334001E0968A33400C12012606FA04F43F
:100D90001688344013B10CB1012000E0002070BD72
:100DA000F0B50346002400260025002040F66A170F
:100DB000B94200D100BF1846C1F3421401F01F062A
:100DC000012707FA06F5012C01D10C3004E0022CB2
:100DD00001D1103000E014301AB107682F430760CA
:100DE00002E00768AF430760F0BD00002DE9F0475F
:100DF00086B005460E460024A24600BFA146002745
:100E0000B08900B100BF2F462C8A4CF6FF70044019
:100E1000F08804432C82AC894EF6F3100440B0886D
:100E200031890843718908430443AC81AC8A4FF689
:100E3000FF400440B0890443AC8201A8FFF710FED4
:100E40001F48874202D1DDF810A001E0DDF80CA0B8
:100E5000A88900F4004040B10AEBCA0000EB0A1078
:100E600031684900B0FBF1F807E00AEBCA0000EB7B
:100E70000A1031688900B0FBF1F86420B8FBF0F08B
:100E800004012009642101FB1089A88900F40040B5
:100E900040B1322000EBC900B0FBF1F000F00700D8
:100EA000044308E0322000EB09106421B0FBF1F0AC
:100EB00000F00F0004432C8106B0BDE8F08700006D
:100EC0000038014001468888C0F30800704700BF21
:100ED000FEE730380A2801D2012070470020704711
:100EE000014600BF7047000010B56FF00400FFF727
:100EF00097FE0A4800680A49B0FBF1F009490870FA
:100F00000846007800EB4001C1EBC0104FF6FF71BE
:100F100001EAC0000449088010BD00000000002064
:100F200000127A003A0000203C0000200146114ADD
:100F300012784A434FF0E0235A6100229A611A4620
:100F4000126942F001021A6100BF4FF0E0221069FD
:100F500000F001021AB100F48032002AF5D04FF0FF
:100F6000E022126922F001024FF0E0231A61002210
:100F70009A6170473A00002000BF054A128802F0CB
:100F80004002002AF9D0C2B2014B1B1D1A807047E3
:100F9000003801409EB000BF4FF00009CA46FFF77D
:100FA000A3FF4FF4E13000F0DDFDFFF7F1FC00F0AE
:100FB00037FAA8A0FFF734F9AC4D00264FF4FA70C9
:100FC000AB490860002435E000BFAA48006801284A
:100FD000FBD01CA9072000F0E2F99DF87000800703
:100FE000800B9DF8711040EA01209DF872100843B3
:100FF000A14941F824009DF873008007800B9DF8FB
:10100000741040EA01209DF8751008439B4941F88F
:101010002400994850F82400A84202D2964850F87B
:101020002450954850F82400B04202D9924850F814
:101030002460641C8E4800688442C5DB8E4850F8EA
:1010400024708F488F49904A904BCDE9002102903F
:10105000894A87480168894800F052FAF9E000247B
:10106000824D0026642420E0834850F82410A4F127
:101070006400814A42F82010804850F82410A4F1FE
:1010800064007E4A42F820107B4850F82400A842B1
:1010900002D2794850F82450774850F82400B042E2
:1010A00002D9754850F82460641CB4F5FA7FDBDB84
:1010B0004FF4C874A8E0601E6F4951F8207000BF5B
:1010C0006C4800680128FBD01CA9072000F067F9D4
:1010D0009DF870008007800B9DF8711040EA012098
:1010E0009DF872100843644941F824009DF873008C
:1010F0008007800B9DF8741040EA01209DF8751060
:1011000008435E4941F824005B4850F82400B84287
:101110001FD9594951F82410C81B00F051FE8346CD
:10112000701B00F04DFE01460290584600F06AFD2B
:1011300083465749584600F057FE8346584600F00C
:1011400023FEA8EB0008B8F1000F20DA4FF00008EA
:101150001DE0494951F82410781A00F031FE834609
:10116000701B00F02DFE01460290584600F04AFD2B
:1011700083464749584600F037FE8346584600F0FC
:1011800003FE8044B8F1FF0F01DD4FF0FF083C483B
:101190000078012812D13C48007801280ED1394846
:1011A000006878280ADA39480068652806DA354880
:1011B00090F80090354890F800A002E04FF0000948
:1011C000CA462D4850F8241032A0FFF729F82B48C2
:1011D00050F8241032A0FFF723F82A48016832A003
:1011E000FFF71EF8264890F9001031A0FFF718F815
:1011F0002648016832A0FFF713F8234890F9001041
:1012000032A0FFF70DF8641CB4F5FA7FFFF653AF78
:101210001B481C491C4A1D4BCDE900210290164A6F
:1012200013480168154800F06BF900202B4908604D
:10123000B9F1000F07D1BAF1000F04D128A103A81A
:10124000FEF7FAFF05E053464A462AA103A8FEF737
:10125000F3FF04E70D0A204D41583330313032207E
:1012600020696E697420200D0A000000FFFF030052
:10127000140000202481214218080020480000208A
:1012800024000020200000201C0000201800002066
:1012900000007F437265643D25692C20000000003A
:1012A00069723D25692C200048523D25692C20009B
:1012B000485276616C69643D25692C20000000006D
:1012C00053704F323D25692C2000000053504F329F
:1012D00056616C69643D25690D0A00008401214254
:1012E00048523A2D2D2D2053704F323A2D2D2D205E
:1012F0000000000048523A2533642053704F323AC0
:10130000253364200000000070B50446FFF7C2FAE0
:10131000AE20FFF78BFAFFF709FB00B119E020467A
:10132000FFF784FAFFF702FB00B112E0FFF7B2FA11
:10133000AF20FFF77BFAFFF7F9FA00B109E00020D0
:10134000FFF73CFA0546FFF711FAFFF7C9FA2846FE
:1013500070BDFFF7C5FA0020FAE770B505460C46E8
:10136000FFF798FAAE20FFF761FAFFF7DFFA00B156
:1013700011E02846FFF75AFAFFF7D8FA00B10AE061
:101380002046FFF753FAFFF7D1FA00B103E0FFF769
:10139000A7FA012070BDFFF7A3FA0020FAE770B5A5
:1013A00005460C460020FFF7AFFF0120FFF7ACFF1A
:1013B000FFF770FAAE20FFF739FAFFF7B7FA00B17E
:1013C0002AE02846FFF732FAFFF7B0FA00B123E02F
:1013D000FFF760FAAF20FFF729FAFFF7A7FA00B18D
:1013E0001AE00120FFF7EAF920700120FFF7E6F983
:1013F00060700120FFF7E2F9A0700120FFF7DEF92D
:10140000E0700120FFF7DAF920710020FFF7D6F92C
:101410006071FFF765FA00BFFFF762FA70BD000068
:1014200008B501210820FFF70BFB4FF40070ADF861
:10143000000048208DF8030069461A48FFF7BFF8FE
:10144000FFF774F900F030F8C0210220FFF785FFA4
:1014500000210320FFF781FF00210420FFF77DFF1B
:1014600000210520FFF779FF00210620FFF775FF17
:101470000F210820FFF771FF03210920FFF76DFFFF
:1014800027210A20FFF769FF24210C20FFF765FFC1
:1014900024210D20FFF761FF7F211020FFF75DFF62
:1014A00008BD0000000C014010B540210920FFF7E5
:1014B00054FF40210920FFF750FF10BD2DE9F847E8
:1014C00005460C4616461F46DDE90A9ADDF82480DB
:1014D0003B46324621462846CDF8008000F090FA7F
:1014E0004B4632462146284600F0C7FA2068504550
:1014F00001DA206800E050462060BDE8F88700006F
:101500002DE9FF4FC6B0884699460020459000243B
:1015100006E0469850F82410459808444590641C0D
:101520004445F6DB4598B0FBF8F04590002408E010
:10153000469850F824104598081AFE4941F82400AE
:10154000641C4445F4DB002417E0FA4850F82410EA
:101550000246601C52F820000144A01C52F82000F2
:101560000144E01C52F820000F183846F91707EB29
:101570009171891042F82410641CB4F5F87FE4DB03
:1015800000240AE0EB49601C51F8200051F82410B7
:10159000401AE94941F82400641CB4F5F77FF1DDF5
:1015A00000240EE0E44951F824200B46611C53F856
:1015B0002110501800EBD07149101A4642F824103F
:1015C000641CB4F5F77FEDDB00251BE000204390A1
:1015D0002C460BE0D84850F82410601BD74A32F84C
:1015E0001020439801FB12004390641C681D844244
:1015F000F0DB40F27A41439890FBF1F0CE4941F89C
:1016000025006D1CB5F5F47FE0DD0020419000243D
:1016100010E0C94850F82400002803DDC64850F8FF
:10162000240003E0C44850F8240040424199084493
:101630004190641CB4F5F77FEBDD40F2EF11419867
:1016400090FBF1F0419005210822419840F2EF1300
:10165000CDE901210090B84A40A912A8FFF72EFF5A
:10166000002011904098022821DB01240BE012A8F1
:1016700050F82410601E12AA52F82000091A11987E
:1016800008441190641C40988442F0DB4098401E4E
:10169000119991FBF0F0119041F27071119891FB4A
:1016A000F0F15498016001215598017005E0A449BA
:1016B00054980160002155980170002407E012A899
:1016C00050F82400801C30A941F82400641C409884
:1016D0008442F4DB00240CE0469850F8240095493D
:1016E00041F82400489850F82400964941F8240015
:1016F000641C4445F0DB0020429000242DE00120D2
:10170000449030A850F824A04FF080703F900AF128
:101710000500B0F5F77F1FDC0A3800281CDD054600
:1017200011E0844850F825103F9881420ADA449825
:1017300008B1002044907F4850F825003F9021A830
:1017400040F824506D1C0AF105008542E9DB4498FD
:1017500010B94298401C4290641C40988442CEDBF1
:101760004298022808DA7648C9F800000021539808
:1017700001704AB0BDE8F08F00242EE06D4951F8A9
:1017800024200B46611C53F821100A44A11C53F875
:1017900021100A44E11C53F821105018C11700EB26
:1017A000917189101A4642F82410664951F8242094
:1017B0000B46611C53F821100A44A11C53F8211058
:1017C0000A44E11C53F821105018C11700EB917125
:1017D00089101A4642F82410641CB4F5F87FCDDB5A
:1017E000002004900026002404E0002005A941F810
:1017F0002400641C052CF8DB00240DE021A850F81F
:101800002400B0F5FA7F06DD4D48C9F8000000213C
:1018100053980170ADE7641C42988442EEDB0024CB
:10182000AEE04FF07F400D900C9021A9601C51F864
:10183000200051F82410401A0A2879DD21A850F818
:10184000245016E03B4850F825100C98814204DDE6
:10185000384850F825000C900A953A4850F8251061
:101860000D98814204DD374850F825000D900B9506
:101870006D1C21A9601C51F82000A842E2DC601C0C
:1018800051F820002F4951F8200021A951F82410C7
:101890002C4A52F82110401A21A951F824200B9902
:1018A000891A4843109021A9601C51F8200051F872
:1018B0002410411A109890FBF1F021A951F824103E
:1018C000204A52F821100844109011460B9851F804
:1018D00020101098081A109021A9601C51F82000BF
:1018E000144951F8200021A951F82410114A52F846
:1018F0002110401A21A951F824200A99891A484335
:101900000F9021A9601C51F8200051F82410411AB1
:101910000F9890FBF1F021A951F82410054A52F8D4
:10192000211008440F9011460B9851F820100BE03D
:1019300025E0000070180020B0100020801F000873
:1019400019FCFFFF402000200F98081A0F900C99F7
:1019500010984843C01103900D990F984843C71140
:10196000002F0CDD052E0ADA039840B1642103989C
:10197000484390FBF7F005A941F82600761C641C4B
:101980004298401EA0423FF74CAF314605A800F0F8
:10199000ADF8304606EBD0714FEA610BBBF1010F99
:1019A0000CDDABF1010105AA52F8211052F82B20F1
:1019B000881800EBD0714910049103E005A850F895
:1019C0002B000490049802280DDD0498B8280ADA48
:1019D00009490498085C0E900E98C9F8000001218E
:1019E0005398017005E00548C9F80000002153989C
:1019F000017000BFBDE60000BE1F000819FCFFFF1C
:101A0000F0B505461C46059E012000270F6030E01A
:101A100052F82070B7422BDD52F820C0471E52F812
:101A20002770BC4524DD012300E05B1CC718A742DA
:101A300007DA52F8207000EB030C52F82CC067450F
:101A4000F3D052F8207000EB030C52F82CC067451D
:101A50000CDD0F680F2F09DAD1F800C00CF1010777
:101A60000F6045F82C005F1C384402E0184400E089
:101A7000401C671E8742CBDCF0BD2DE9F04F0546C8
:101A80000C469246984629465046226800F049F88E
:101A90004FF0FF3621E0D4F800B0701C2060771CB6
:101AA00018E055F82710701C10B94FF0FF3001E016
:101AB00055F82600A1EB0009C14503DCC8F1000080
:101AC000814506DA55F827102268501C206045F839
:101AD00022107F1C5F45E4DB761C2068B042DADC14
:101AE0002846216800F002F8BDE8F08F30B50C46BA
:101AF000012213E050F82230114605E04D1E50F847
:101B0000255040F82150491E002904DD4D1E50F893
:101B100025509D42F2DC40F82130521CA242E9DB04
:101B200030BDF0B503461546012217E051F82240BA
:101B3000104605E0461E51F8266041F82060401E20
:101B4000002808DD53F82470461E51F8266053F82B
:101B50002660B742EEDC41F82040521CAA42E5DB89
:101B6000F0BD000010B586B00446012144F2040027
:101B7000FEF766FF4FF40070ADF8140003208DF8F7
:101B8000160018208DF8170005A91C48FEF717FD50
:101B90004FF48060ADF8140004208DF8170005A9FB
:101BA0001648FEF70CFD25208DF8000003208DF867
:101BB00001008DF8020001208DF803006846FEF751
:101BC00005FF01940020ADF80800ADF80A00ADF85B
:101BD0000C00ADF810000C20ADF80E0001A908486B
:101BE000FFF704F9012240F225510548FFF7D8F824
:101BF00001210348FFF79EF806B010BD0008014020
:101C0000003801404FF47F0C1CEAD0121EBF1CEAC2
:101C1000D11392EA0C0F93EA0C0F00F0858090EA42
:101C2000010F48BF42F4807240F4000C41F4000000
:101C30002CF07F4120F07F4000B58142A2EB0302EF
:101C40000FF2081CACEB504EC0F100009EF800E013
:101C50004FEA4E0E00FB0EFC38BF49004FEA2C1C29
:101C600002F5FA020CFB0EF34FEACE1E4FEA112CDE
:101C70004FEAC1210EEB635E42EB22420EFB0CFCED
:101C80004FEA1C5300FB03114FEA112C4FEA0131BC
:101C90000EFB0CFC4FEADC4C00FB0C11C14228BFD0
:101CA00009184CEB03335DF804EB10EB410143EBF7
:101CB000C250B2F57C0F38BF704729D512F0F00F33
:101CC0001CBF00F1C04000F00040704700818283DB
:101CD0008485868788898B8C8D8E8F91929395963B
:101CE00097999A9C9D9FA0A2A3A5A7A8AAACAEB0C5
:101CF000B2B3B5B7B9BCBEC0C2C5C7C9CCCED1D4CA
:101D0000D7D9DCDFE2E6E9ECF0F3F7FAFE000000F9
:101D10004FEA400C0CF1807CBCF17E4F28BF70472D
:101D2000B0F1C04000F027B990EA010F0CEAD113DE
:101D300048BF42F48072624538BF634507D213F44E
:101D40007F0F16D080EA010000F00040704710B508
:101D500000F0CBF8097EFC3E00F005B880EA0100F7
:101D600000F00040704780EA010000F0004000F001
:101D700002B912F47F0F04BF0248704780EA0100E5
:101D800000F0F9B80000C07F41000B0ED3F19E02B5
:101D900008D950F400034FEA032323FA02F048BFA6
:101DA0004042704710B500F0A0F800BF499224806F
:101DB000002070476FF0004282EA20007047000068
:101DC000B0FA80F310FA03F2C3F19D030AD0D905EB
:101DD00001EB1220530638BF704700F1010008BF25
:101DE00020F00100704700004FF47F0C1CEAD01275
:101DF0001EBF1CEAD11392EA0C0F93EA0C0F00F0FD
:101E0000478090EA010F48BF42F480724FF0004CC7
:101E10004CEA00204CEA012102EB0302A0FB011373
:101E2000A2F50002002918BF43F001035B0028BFA0
:101E30004FEA330342EB22425FEA132C4CEBC250D1
:101E40002EBFBCEB436FB2F57C0F70474FEA036CBB
:101E5000BCF1004F08BF20F00100B2F57C0F38BF85
:101E600070470BD582F0FF0212F5803FC8BF704764
:101E700000F1C040D8BF00F00040704700F5000CF2
:101E80005FEA4C0C48BF7047B0F1C04000F073B837
:101E900090EA010F0CEAD11348BF42F48072624508
:101EA00038BF634504D280EA010000F0004070476B
:101EB00010B500F01AF800BF8900013E00F007B825
:101EC00000F009B85FEA410C5FEA1C6C08D080EAB8
:101ED000010000F050B85FEA400C5FEA1C6CF6D1DC
:101EE0004FF00040A0F5800070470EF1020E2EF07A
:101EF000030E5EF8044B244204D44FEA4102B2F1CF
:101F00007F4F11D84FEA4003B3F17F4F0CD80ED169
:101F10004FEAD07CB2F17F4F0CEB4C0C0CF1020C71
:101F200008BF4CEBD17C04E04FF0080C01E04FEA15
:101F3000D17C0CEB4C0324FA03F404F00704B4F155
:101F4000040C06D20EEB840CBDE810404CF0010CE2
:101F50006047DFE80CF0070802024FF00040A0F5F0
:101F6000800010BD0846420018BFD2F1807288BFC1
:101F700000F0004010BDFF2141EAD050C00570477D
:101F800029001401000214012900000000000000D3
:101F90000000000000000000000000000000000041
:101FA0000000000000000000000000000000000031
:101FB00000000000000000000000000000005F5F63
:101FC0005F606060616161616162626262626363FD
:101FD00063636363636364646464646464646464C7
:101FE00064646464646464646464636363636363B7
:101FF00063636262626262626161616160606060CB
:102000005F5F5F5E5E5E5D5D5D5C5C5C5B5B5A5A04
:102010005959595858575756565555545453525262
:10202000515150504F4E4E4D4C4C4B4A4A494848E6
:10203000474645454443424241403F3E3E3D3C3B8E
:102040003A39383837363534333231302F2E2D2C5B
:102050002B2A2928272625242322211F1E1D1C1B4D
:102060001A19171615141311100F0E0C0B0A090765
:10207000060503020100000098200008000000206F
:10208000480000006C010008E02000084800002023
:10209000282E00008801000800A24A040000000069
:1020A0000000000001020304060708090000000008
:1020B0000000000000000000000000000000000020
:1020C00000000102030401020304060708090204D8
:1020D00006080000000000000000000000000000F2
:0400000508000131BD
:00000001FF
